:04000000B3EF03F067
:08000800046ED8CF05F0E0CF33
:1000100006F00001E9CF0CF0EACF07F0E1CF08F0DD
:10002000E2CF09F0D9CF0AF0DACF0BF0F3CF12F01C
:10003000F4CF13F0FACF14F0F5CF15F0F6CF16F099
:10004000F7CF17F000C00EF001C00FF002C010F0A3
:1000500003C011F0F2A830EF00F0F2B261EF00F04F
:100060000EC000F00FC001F010C002F011C003F08C
:100070000CC0E9FF07C0EAFF078E08C0E1FF09C016
:10008000E2FF0AC0D9FF0BC0DAFF12C0F3FF13C0B2
:10009000F4FF14C0FAFF15C0F5FF16C0F6FF17C035
:1000A000F7FF045006C0E0FF05C0D8FF1000F76A54
:1000B000BE0FF66E000EF7220900F5501200280C54
:1000C00001061F2AD8B4202AF19CF29230EF00F0EA
:1000D00053746F703A2054616E717565206C6C6555
:1000E0006E6F000043617564616C3A20252E3266A4
:1000F000204C2F6D696E0000EA6A350EE96EEF50F4
:100100000EE0010E016E006A002EFED7012EFBD715
:100110004A0E006E002EFED700D0EF2EF2D712004E
:100120003C500F0B006EF00E83140010836E000025
:10013000838800D0839812000F0E956E838A00008A
:100140008388000083500F0B3C6E839800008388E7
:10015000000083500F0B3B6E8398000E956E3C3869
:10016000006EF00E001600503B10016EBAEF00F06A
:10017000839CE2D701C03BF001BEFBD739A0839C32
:1001800039B0838C0000839A000083983A383B6E24
:100190000F0E3B163BC03CF0C3DF3A500F0B3B6EDB
:1001A0003C6EBEDF1200000E956E839C839A83988E
:1001B000960E356EA1DF010E276E2750030808E367
:1001C000030E3C6EADDF050E356E96DF272AF5D7A0
:1001D000020E3C6EA5DF276A2750030809E3036A75
:1001E000275065DF286E396A3A6EC2DF272AF4D7B6
:1001F000D0EF03F0362C01D003D0400E376E01D083
:10020000376A010E355C372637508009386E396AF7
:100210003A6EAEDF120034500C0A05E0060A0BE01D
:10022000020A0FE013D0396A010E3A6EA1DF020E06
:10023000356E62DF10D0010E356E020E366EDADFDB
:100240000AD0396A100E3A6E93DF05D0010E396E6E
:1002500034C03AF08DDF12000900F5520CE0F6CF01
:1002600027F0F7CF28F0F5CF34F0D5DF27C0F6FF21
:1002700028C0F7FFF1D7DDEF03F08E0E006E28C027
:1002800001F027C002F0036A015209E102C001F047
:10029000026A080E005E015202E1006A08D0D8909E
:1002A00001BE04D0023601360006F9D7019EF2EFF6
:1002B00003F03450D8B471D0006E3850D8B46DD03B
:1002C000002604E3810E002668E204D07F0E005E63
:1002D00064E363E035C03CF039503C1A358E398E0A
:1002E00037503B02F4CF3EF036503A02F4CF03F0E1
:1002F000F3CF3DF03B02F3503E26F4503D22000E7A
:10030000032237503A02F3503E26F4503D22000EAD
:10031000026A0322022235503B02F3503D26F4507C
:100320000322000E022235503A02F3500326F45005
:100330000222000E016A012237503902F3503D2695
:10034000F4500322000E0222012236503902F350EB
:100350000326F4500222000E012235503902F350D8
:100360000226F4500122002A01BE05D03D36033694
:10037000023601360006000E3DAE0AD0032A0222E4
:100380000122015005E1025003E1035001E1002A7E
:100390003CBE018E3CAE019E04D0006A016A026A36
:1003A000036A12002750D8B4A5D0336E2B50D8B4AE
:1003B000A1D0335E05E37F0E3326D8B09BD006D0A4
:1003C000810E335ED8A096D0D8B494D033C000F05C
:1003D000016A026A036A326A28C031F0318E29C08C
:1003E00030F02AC02FF0190E336E2E502F5E0DE222
:1003F000010E305E0AE2315E08E2325E06E2322A27
:10040000312A302A2E502F2628D02D50305E12E26D
:10041000010E315E0FE2325E0DE2322A312A2D509A
:1004200030262E502F2619E3302A17E1312A15E104
:10043000322A13D02C508009315E0EE2010E325E5A
:100440000BE2322A2C50800931262D503026E9E368
:10045000312AE7E1322AE5D70380332E01D00BD0D1
:10046000D8902F36303631363236D89003360236B1
:1004700001363436BAD734A006D0D89001320232D1
:100480000332343202D0000635E034BE1ED0D8909C
:100490002F363036313632362E502F5E07E2010EBF
:1004A000305E04E2315E02E2325E1AE32D50305ECD
:1004B00005E2010E315E02E2325E12E32C50800949
:1004C000315E03E2010E325E0BE3032A09E1022AE8
:1004D00007E1012A05E1002A0DE001320232033270
:1004E00028C033F02C50331A33AE02D0018E06D020
:1004F000019E04D0006A016A026A036A37EF04F0C1
:100500000900F6CF28F0F7CF29F0F5CF34F083DEDD
:1005100028C0F6FF29C0F7FF272EF2D7120034506B
:10052000B608346E036A35C038F0358ED89035324F
:10053000363237320332023201320032342EF6D7ED
:1005400038AE0BD0001E011E021E031E002AD8B4B6
:10055000012AD8B4022AD8B4032A1DEF03F0D8B276
:1005600003D0EA6A3C0EE96E006A016A026A036A15
:100570003C6A3D6A3E6A3F6A3B503A103910381077
:100580002CE0200E406ED89034363536363637366D
:100590003C363D363E363F363B503F5C08E13A50F4
:1005A0003E5C05E139503D5C02E138503C5C0FE3B4
:1005B00038503C5E3950D8A0393C3D5E3A50D8A006
:1005C0003A3C3E5E3B50D8A03B3C3F5ED880003674
:1005D000013602360336402ED6D73CC0EFFF3DC071
:1005E000ECFF3EC0ECFF3FC0ECFF1200E9502C6E68
:1005F0002B502E6E19E02AC037F029C036F028C0E3
:1006000035F027C034F03B6A3A6A200E396E820E0C
:10061000386E4FDE03C02AF002C029F001C028F076
:1006200000C027F02E2EE7D72AC037F029C036F0B9
:1006300028C035F027C034F072D703C02AF002C0BA
:1006400029F001C028F000C027F02AAE0DD02C06FA
:100650002C8A271E281E291E2A1E272AD8B4282A9B
:10066000D8B4292AD8B42A2A3B0E336E9A0E326E99
:10067000CA0E316E306A0A0E2E6E2B50D8B42C2A58
:10068000D882EA6A270EE96E2AC037F029C036F010
:1006900028C035F027C034F033C03BF032C03AF008
:1006A00031C039F030C038F05ADF015000520FE14C
:1006B0002B282E5C0CE02C500CE00F0B2E5C01E084
:1006C00037E22CBE35D02CBC04D0200E2DD0200E0D
:1006D0002C162CAA0CD02C9A2B50D8A42C060050E7
:1006E0002C6E2D0E346E97DD2C50006E2C6A2B5024
:1006F0002E5C0AE100502C6E2E0E346E8CDD2C50D8
:10070000006E200E2C16000E300E2CAA0DD02C9A46
:100710002B50D8A42C0600502C6E2D0E346E7BDD91
:100720002C50006E2C6A300E002600C034F073DDB1
:10073000D89233C037F032C036F031C035F030C017
:1007400034F03B6A3A6A396A0A0E386E08DF03C031
:1007500033F002C032F001C031F000C030F02E2E74
:100760008FD75AEF04F0F86AD09E078E206A1F6A6E
:10077000246A236A226A216A266A256AC150C00B4C
:100780000F09C16E070EB46E196A1A6AD190880EED
:10079000D56EF288C00EF212F19C010E936E03D555
:1007A000948082A015D0010E356E020E366E22DDC9
:1007B000D00EF66E000EF76E4FD5640E356E9CDCD3
:1007C00094928B82640E356E97DC206A1F6A82D009
:1007D00094928B82640E356E8FDC20C028F01FC08F
:1007E00027F04BD503C02AF002C029F001C028F041
:1007F00000C027F003C037F002C036F001C035F06A
:1008000000C034F03B6A3A6A100E396E800E386EC2
:1008100050DD03C024F002C023F001C022F000C06C
:1008200021F024C037F023C036F022C035F021C0BB
:1008300034F03B6A3A6A700E396E840E386E39DDD8
:1008400003C024F002C023F001C022F000C021F058
:1008500024C02AF023C029F022C028F021C027F0AC
:100860002E6A2D6A7A0E2C6E880E2B6E9BD503C0D5
:1008700024F002C023F001C022F000C021F00C0ED1
:10088000346EC9DC010E356E366EB4DCE40EF66EE5
:10089000000EF76E080E276E33DE890EE96E24C057
:1008A0002AF023C029F022C028F021C027F0020E30
:1008B0002B6E9CD6F00EF66E000EF76E060E276EAF
:1008C0001FDE206A1F6A040E276EFA0E356E14DCD6
:0808D000272EFBD765D70300BA
:020000040030CA
:0E0000003FC0391E0087A1000FC00FE00F4067
:00000001FF
;PIC18F4550
;CRC=CEE3  CREATED="08-may.-24 00:17"
